{
  "contractName": "EnergyManagement",
  "abi": [
    {
      "inputs": [
        {
          "internalType": "uint256",
          "name": "",
          "type": "uint256"
        }
      ],
      "name": "CSs",
      "outputs": [
        {
          "internalType": "uint256",
          "name": "CS_ID",
          "type": "uint256"
        },
        {
          "internalType": "uint256",
          "name": "capacity",
          "type": "uint256"
        },
        {
          "internalType": "uint256",
          "name": "load",
          "type": "uint256"
        },
        {
          "internalType": "uint256",
          "name": "max_load",
          "type": "uint256"
        },
        {
          "internalType": "string",
          "name": "gps_location",
          "type": "string"
        }
      ],
      "stateMutability": "view",
      "type": "function"
    },
    {
      "inputs": [
        {
          "internalType": "uint256",
          "name": "",
          "type": "uint256"
        }
      ],
      "name": "EVs",
      "outputs": [
        {
          "internalType": "uint256",
          "name": "EV_ID",
          "type": "uint256"
        },
        {
          "internalType": "uint256",
          "name": "soc",
          "type": "uint256"
        },
        {
          "internalType": "uint256",
          "name": "capacity",
          "type": "uint256"
        },
        {
          "internalType": "uint256",
          "name": "energy_coins",
          "type": "uint256"
        },
        {
          "internalType": "string",
          "name": "gps_location",
          "type": "string"
        },
        {
          "internalType": "uint256",
          "name": "pay_off_value",
          "type": "uint256"
        }
      ],
      "stateMutability": "view",
      "type": "function"
    },
    {
      "inputs": [],
      "name": "scheduleEVs",
      "outputs": [],
      "stateMutability": "nonpayable",
      "type": "function"
    }
  ],
  "bytecode": "0x608060405234801561001057600080fd5b50610aff806100206000396000f3fe608060405234801561001057600080fd5b50600436106100415760003560e01c8063242a8e48146100465780636d30e1621461007b578063ac8f1191146100af575b600080fd5b610060600480360381019061005b919061075c565b6100b9565b60405161007296959493929190610828565b60405180910390f35b6100956004803603810190610090919061075c565b61018d565b6040516100a6959493929190610890565b60405180910390f35b6100b761025b565b005b600081815481106100c957600080fd5b906000526020600020906006020160009150905080600001549080600101549080600201549080600301549080600401805461010490610919565b80601f016020809104026020016040519081016040528092919081815260200182805461013090610919565b801561017d5780601f106101525761010080835404028352916020019161017d565b820191906000526020600020905b81548152906001019060200180831161016057829003601f168201915b5050505050908060050154905086565b6001818154811061019d57600080fd5b90600052602060002090600602016000915090508060000154908060010154908060020154908060030154908060040180546101d890610919565b80601f016020809104026020016040519081016040528092919081815260200182805461020490610919565b80156102515780601f1061022657610100808354040283529160200191610251565b820191906000526020600020905b81548152906001019060200180831161023457829003601f168201915b5050505050905085565b60008080549050905060006001805490509050600081905060005b838110156106dd576000818561028c9190610979565b905060008382101561029e57816102a0565b835b905060008167ffffffffffffffff8111156102be576102bd6109ad565b5b6040519080825280602002602001820160405280156102f757816020015b6102e46106eb565b8152602001906001900390816102dc5790505b50905060005b82811015610432576000818661031391906109dc565b8154811061032457610323610a10565b5b90600052602060002090600602016040518060c00160405290816000820154815260200160018201548152602001600282015481526020016003820154815260200160048201805461037590610919565b80601f01602080910402602001604051908101604052809291908181526020018280546103a190610919565b80156103ee5780601f106103c3576101008083540402835291602001916103ee565b820191906000526020600020905b8154815290600101906020018083116103d157829003601f168201915b5050505050815260200160058201548152505082828151811061041457610413610a10565b5b6020026020010181905250808061042a90610a3f565b9150506102fd565b5060005b828110156106c657600082828151811061045357610452610a10565b5b6020026020010151905060008160400151826020015160646104759190610979565b61047f9190610a87565b905060007fffffffffffffffffffffffffffffffffffffffffffffffffffffffffffffffff905060007fffffffffffffffffffffffffffffffffffffffffffffffffffffffffffffffff905060007fffffffffffffffffffffffffffffffffffffffffffffffffffffffffffffffff905060005b8c8110156106335760006001828154811061051157610510610a10565b5b906000526020600020906006020190506000816002015482600101546105379190610979565b905060006105d5896080015184600401805461055290610919565b80601f016020809104026020016040519081016040528092919081815260200182805461057e90610919565b80156105cb5780601f106105a0576101008083540402835291602001916105cb565b820191906000526020600020905b8154815290600101906020018083116105ae57829003601f168201915b50505050506106e3565b90508782101580156105eb575086836002015411155b80156105f657508581105b801561060a57508260030154836002015411155b1561061d57826002015496508095508394505b505050808061062b90610a3f565b9150506104f3565b508b8110156106ae5760006001828154811061065257610651610a10565b5b906000526020600020906006020190508481600201600082825461067691906109dc565b925050819055508060050186600001519080600181540180825580915050600190039060005260206000200160009091909190915055505b505050505080806106be90610a3f565b915050610436565b5050505081816106d691906109dc565b9050610276565b50505050565b600092915050565b6040518060c001604052806000815260200160008152602001600081526020016000815260200160608152602001600081525090565b600080fd5b6000819050919050565b61073981610726565b811461074457600080fd5b50565b60008135905061075681610730565b92915050565b60006020828403121561077257610771610721565b5b600061078084828501610747565b91505092915050565b61079281610726565b82525050565b600081519050919050565b600082825260208201905092915050565b60005b838110156107d25780820151818401526020810190506107b7565b60008484015250505050565b6000601f19601f8301169050919050565b60006107fa82610798565b61080481856107a3565b93506108148185602086016107b4565b61081d816107de565b840191505092915050565b600060c08201905061083d6000830189610789565b61084a6020830188610789565b6108576040830187610789565b6108646060830186610789565b818103608083015261087681856107ef565b905061088560a0830184610789565b979650505050505050565b600060a0820190506108a56000830188610789565b6108b26020830187610789565b6108bf6040830186610789565b6108cc6060830185610789565b81810360808301526108de81846107ef565b90509695505050505050565b7f4e487b7100000000000000000000000000000000000000000000000000000000600052602260045260246000fd5b6000600282049050600182168061093157607f821691505b602082108103610944576109436108ea565b5b50919050565b7f4e487b7100000000000000000000000000000000000000000000000000000000600052601160045260246000fd5b600061098482610726565b915061098f83610726565b92508282039050818111156109a7576109a661094a565b5b92915050565b7f4e487b7100000000000000000000000000000000000000000000000000000000600052604160045260246000fd5b60006109e782610726565b91506109f283610726565b9250828201905080821115610a0a57610a0961094a565b5b92915050565b7f4e487b7100000000000000000000000000000000000000000000000000000000600052603260045260246000fd5b6000610a4a82610726565b91507fffffffffffffffffffffffffffffffffffffffffffffffffffffffffffffffff8203610a7c57610a7b61094a565b5b600182019050919050565b6000610a9282610726565b9150610a9d83610726565b9250828202610aab81610726565b91508282048414831517610ac257610ac161094a565b5b509291505056fea2646970667358221220ef7dd581e160d385ea06b6d1c67164f8630013420edec19b16b55358185b85fa64736f6c63430008130033",
  "immutableReferences": {},
  "source": "pragma solidity ^0.8.0;\r\n\r\ncontract EnergyManagement {\r\n\r\n    struct EV {\r\n        uint EV_ID;\r\n        uint soc;\r\n        uint capacity;\r\n        uint energy_coins;\r\n        string gps_location;\r\n        uint pay_off_value;\r\n    }\r\n\r\n    struct CS {\r\n        uint CS_ID;\r\n        uint capacity;\r\n        uint load;\r\n        uint max_load;\r\n        string gps_location;\r\n        uint[] scheduled_EVs;\r\n    }\r\n\r\n    EV[] public EVs;\r\n    CS[] public CSs;\r\n\r\n    function scheduleEVs() external {\r\n        uint numEvs = EVs.length;\r\n        uint numCss = CSs.length;\r\n        uint M = numCss; // Number of CSs\r\n\r\n        for (uint evIndex = 0; evIndex < numEvs; evIndex += M) {\r\n            uint remainingEvs = numEvs - evIndex;\r\n            uint numScheduledEvs = remainingEvs >= M ? M : remainingEvs;\r\n\r\n            EV[] memory chosenEvs = new EV[](numScheduledEvs);\r\n            for (uint i = 0; i < numScheduledEvs; i++) {\r\n                chosenEvs[i] = EVs[evIndex + i];\r\n            }\r\n\r\n            for (uint i = 0; i < numScheduledEvs; i++) {\r\n                EV memory ev = chosenEvs[i];\r\n                uint energyNeeded = (100 - ev.soc) * ev.capacity;\r\n\r\n                uint minLoad = type(uint).max;\r\n                uint minDistance = type(uint).max;\r\n                uint chosenCsIndex = type(uint).max;\r\n\r\n                // Find CS with minimum load and minimum distance\r\n                for (uint csIndex = 0; csIndex < numCss; csIndex++) {\r\n                    CS storage cs = CSs[csIndex];\r\n\r\n                    uint energyAvailable = cs.capacity - cs.load;\r\n                    uint distance = calculateDistance(ev.gps_location, cs.gps_location);\r\n\r\n                    if (energyAvailable >= energyNeeded && cs.load <= minLoad && distance < minDistance && cs.load <= cs.max_load) {\r\n                        minLoad = cs.load;\r\n                        minDistance = distance;\r\n                        chosenCsIndex = csIndex;\r\n                    }\r\n                }\r\n\r\n                // If a suitable CS is found, schedule the EV\r\n                if (chosenCsIndex < numCss) {\r\n                    CS storage chosenCs = CSs[chosenCsIndex];\r\n                    chosenCs.load += energyNeeded;\r\n                    chosenCs.scheduled_EVs.push(ev.EV_ID);\r\n                }\r\n            }\r\n        }\r\n    }\r\n\r\n    function calculateDistance(string memory loc1, string memory loc2) internal pure returns (uint) {\r\n        // Implementation for calculating distance between GPS locations\r\n        // Replace with your own logic\r\n        return 0;\r\n    }\r\n}\r\n",
  "sourcePath": "C:\\Users\\Aayush\\aadhaar_project\\contracts\\Energy_Management.sol",
  "compiler": {
    "name": "solc",
    "version": "0.8.19+commit.7dd6d404.Emscripten.clang"
  },
  "schemaVersion": "3.4.13",
  "updatedAt": "2023-10-09T23:23:04.351Z",
  "devdoc": {
    "kind": "dev",
    "methods": {},
    "version": 1
  },
  "userdoc": {
    "kind": "user",
    "methods": {},
    "version": 1
  }
}